{
  "contractName": "masterContract",
  "abi": [
    {
      "inputs": [
        {
          "internalType": "address",
          "name": "_vault",
          "type": "address"
        },
        {
          "internalType": "address",
          "name": "token0",
          "type": "address"
        },
        {
          "internalType": "address",
          "name": "token1",
          "type": "address"
        },
        {
          "internalType": "address",
          "name": "token2",
          "type": "address"
        }
      ],
      "stateMutability": "nonpayable",
      "type": "constructor"
    },
    {
      "anonymous": false,
      "inputs": [
        {
          "indexed": true,
          "internalType": "address",
          "name": "_user",
          "type": "address"
        },
        {
          "indexed": true,
          "internalType": "address",
          "name": "_token",
          "type": "address"
        },
        {
          "indexed": false,
          "internalType": "uint256",
          "name": "_amount",
          "type": "uint256"
        }
      ],
      "name": "Borrow",
      "type": "event"
    },
    {
      "anonymous": false,
      "inputs": [
        {
          "indexed": true,
          "internalType": "address",
          "name": "_user",
          "type": "address"
        },
        {
          "indexed": true,
          "internalType": "address",
          "name": "_token",
          "type": "address"
        },
        {
          "indexed": false,
          "internalType": "uint256",
          "name": "_amount",
          "type": "uint256"
        }
      ],
      "name": "Deposit",
      "type": "event"
    },
    {
      "anonymous": false,
      "inputs": [
        {
          "indexed": true,
          "internalType": "address",
          "name": "_user",
          "type": "address"
        },
        {
          "indexed": true,
          "internalType": "address",
          "name": "_token",
          "type": "address"
        },
        {
          "indexed": false,
          "internalType": "uint256",
          "name": "_amount",
          "type": "uint256"
        }
      ],
      "name": "Repay",
      "type": "event"
    },
    {
      "anonymous": false,
      "inputs": [
        {
          "indexed": true,
          "internalType": "address",
          "name": "_user",
          "type": "address"
        },
        {
          "indexed": true,
          "internalType": "address",
          "name": "_token",
          "type": "address"
        }
      ],
      "name": "Withdraw",
      "type": "event"
    },
    {
      "inputs": [],
      "name": "getInterestVault",
      "outputs": [
        {
          "internalType": "address",
          "name": "",
          "type": "address"
        }
      ],
      "stateMutability": "view",
      "type": "function"
    },
    {
      "inputs": [
        {
          "internalType": "address",
          "name": "",
          "type": "address"
        }
      ],
      "name": "getUserCredit",
      "outputs": [
        {
          "internalType": "uint256",
          "name": "",
          "type": "uint256"
        }
      ],
      "stateMutability": "view",
      "type": "function"
    },
    {
      "inputs": [
        {
          "internalType": "address",
          "name": "",
          "type": "address"
        }
      ],
      "name": "getUserCreditLimit",
      "outputs": [
        {
          "internalType": "uint256",
          "name": "",
          "type": "uint256"
        }
      ],
      "stateMutability": "view",
      "type": "function"
    },
    {
      "inputs": [
        {
          "internalType": "address",
          "name": "",
          "type": "address"
        }
      ],
      "name": "getUserDeposit",
      "outputs": [
        {
          "internalType": "uint256",
          "name": "",
          "type": "uint256"
        }
      ],
      "stateMutability": "view",
      "type": "function"
    },
    {
      "inputs": [
        {
          "internalType": "address",
          "name": "",
          "type": "address"
        }
      ],
      "name": "isTokenSupported",
      "outputs": [
        {
          "internalType": "bool",
          "name": "",
          "type": "bool"
        }
      ],
      "stateMutability": "view",
      "type": "function"
    },
    {
      "inputs": [
        {
          "internalType": "address",
          "name": "_token",
          "type": "address"
        },
        {
          "internalType": "uint256",
          "name": "_amount",
          "type": "uint256"
        }
      ],
      "name": "deposit",
      "outputs": [
        {
          "internalType": "bool",
          "name": "success",
          "type": "bool"
        }
      ],
      "stateMutability": "nonpayable",
      "type": "function"
    },
    {
      "inputs": [
        {
          "internalType": "address",
          "name": "_token",
          "type": "address"
        },
        {
          "internalType": "uint256",
          "name": "_amount",
          "type": "uint256"
        }
      ],
      "name": "borrow",
      "outputs": [
        {
          "internalType": "bool",
          "name": "success",
          "type": "bool"
        }
      ],
      "stateMutability": "nonpayable",
      "type": "function"
    },
    {
      "inputs": [
        {
          "internalType": "address",
          "name": "_token",
          "type": "address"
        },
        {
          "internalType": "uint256",
          "name": "_amount",
          "type": "uint256"
        }
      ],
      "name": "repay",
      "outputs": [
        {
          "internalType": "bool",
          "name": "success",
          "type": "bool"
        }
      ],
      "stateMutability": "nonpayable",
      "type": "function"
    },
    {
      "inputs": [
        {
          "internalType": "address",
          "name": "_token",
          "type": "address"
        }
      ],
      "name": "withdraw",
      "outputs": [
        {
          "internalType": "bool",
          "name": "success",
          "type": "bool"
        }
      ],
      "stateMutability": "nonpayable",
      "type": "function"
    }
  ],
  "bytecode": "0x60806040523480156200001157600080fd5b5060405162001634380380620016348339818101604052810190620000379190620001a1565b83600460006101000a81548173ffffffffffffffffffffffffffffffffffffffff021916908373ffffffffffffffffffffffffffffffffffffffff1602179055506001600360008573ffffffffffffffffffffffffffffffffffffffff1673ffffffffffffffffffffffffffffffffffffffff16815260200190815260200160002060006101000a81548160ff0219169083151502179055506001600360008473ffffffffffffffffffffffffffffffffffffffff1673ffffffffffffffffffffffffffffffffffffffff16815260200190815260200160002060006101000a81548160ff0219169083151502179055506001600360008373ffffffffffffffffffffffffffffffffffffffff1673ffffffffffffffffffffffffffffffffffffffff16815260200190815260200160002060006101000a81548160ff021916908315150217905550505050506200025b565b6000815190506200019b8162000241565b92915050565b60008060008060808587031215620001b857600080fd5b6000620001c8878288016200018a565b9450506020620001db878288016200018a565b9350506040620001ee878288016200018a565b925050606062000201878288016200018a565b91505092959194509250565b60006200021a8262000221565b9050919050565b600073ffffffffffffffffffffffffffffffffffffffff82169050919050565b6200024c816200020d565b81146200025857600080fd5b50565b6113c9806200026b6000396000f3fe608060405234801561001057600080fd5b50600436106100935760003560e01c80634b8a3529116100665780634b8a35291461014657806351cff8d91461017657806375151b63146101a6578063c084b10b146101d6578063dad6f0dc1461020657610093565b80631a8ec2f91461009857806322867d78146100c857806347e7ef24146100f857806348a6618014610128575b600080fd5b6100b260048036038101906100ad9190611058565b610236565b6040516100bf91906111d2565b60405180910390f35b6100e260048036038101906100dd9190611081565b61024e565b6040516100ef91906111b7565b60405180910390f35b610112600480360381019061010d9190611081565b6105b3565b60405161011f91906111b7565b60405180910390f35b6101306108ce565b60405161013d919061113c565b60405180910390f35b610160600480360381019061015b9190611081565b6108f4565b60405161016d91906111b7565b60405180910390f35b610190600480360381019061018b9190611058565b610c57565b60405161019d91906111b7565b60405180910390f35b6101c060048036038101906101bb9190611058565b610f9e565b6040516101cd91906111b7565b60405180910390f35b6101f060048036038101906101eb9190611058565b610fbe565b6040516101fd91906111d2565b60405180910390f35b610220600480360381019061021b9190611058565b610fd6565b60405161022d91906111d2565b60405180910390f35b60026020528060005260406000206000915090505481565b600060011515600360008573ffffffffffffffffffffffffffffffffffffffff1673ffffffffffffffffffffffffffffffffffffffff16815260200190815260200160002060009054906101000a900460ff161515146102ad57600080fd5b81600160003373ffffffffffffffffffffffffffffffffffffffff1673ffffffffffffffffffffffffffffffffffffffff1681526020019081526020016000205410156102f957600080fd5b818373ffffffffffffffffffffffffffffffffffffffff166370a08231336040518263ffffffff1660e01b8152600401610333919061113c565b602060405180830381600087803b15801561034d57600080fd5b505af1158015610361573d6000803e3d6000fd5b505050506040513d601f19601f8201168201806040525081019061038591906110e6565b101561039057600080fd5b8273ffffffffffffffffffffffffffffffffffffffff166323b872dd3330856040518463ffffffff1660e01b81526004016103cd93929190611157565b602060405180830381600087803b1580156103e757600080fd5b505af11580156103fb573d6000803e3d6000fd5b505050506040513d601f19601f8201168201806040525081019061041f91906110bd565b61042857600080fd5b81600160003373ffffffffffffffffffffffffffffffffffffffff1673ffffffffffffffffffffffffffffffffffffffff168152602001908152602001600020546104739190611274565b600160003373ffffffffffffffffffffffffffffffffffffffff1673ffffffffffffffffffffffffffffffffffffffff1681526020019081526020016000208190555081600260003373ffffffffffffffffffffffffffffffffffffffff1673ffffffffffffffffffffffffffffffffffffffff1681526020019081526020016000205461050191906111ed565b600260003373ffffffffffffffffffffffffffffffffffffffff1673ffffffffffffffffffffffffffffffffffffffff168152602001908152602001600020819055508273ffffffffffffffffffffffffffffffffffffffff163373ffffffffffffffffffffffffffffffffffffffff167f05f2eeda0e08e4b437f487c8d7d29b14537d15e3488170dc3de5dbdf8dac4684846040516105a191906111d2565b60405180910390a36001905092915050565b600060011515600360008573ffffffffffffffffffffffffffffffffffffffff1673ffffffffffffffffffffffffffffffffffffffff16815260200190815260200160002060009054906101000a900460ff1615151461061257600080fd5b818373ffffffffffffffffffffffffffffffffffffffff166370a08231336040518263ffffffff1660e01b815260040161064c919061113c565b602060405180830381600087803b15801561066657600080fd5b505af115801561067a573d6000803e3d6000fd5b505050506040513d601f19601f8201168201806040525081019061069e91906110e6565b10156106a957600080fd5b8273ffffffffffffffffffffffffffffffffffffffff166323b872dd3330856040518463ffffffff1660e01b81526004016106e693929190611157565b602060405180830381600087803b15801561070057600080fd5b505af1158015610714573d6000803e3d6000fd5b505050506040513d601f19601f8201168201806040525081019061073891906110bd565b61074157600080fd5b816000803373ffffffffffffffffffffffffffffffffffffffff1673ffffffffffffffffffffffffffffffffffffffff1681526020019081526020016000205461078b91906111ed565b6000803373ffffffffffffffffffffffffffffffffffffffff1673ffffffffffffffffffffffffffffffffffffffff1681526020019081526020016000208190555060006108186000803373ffffffffffffffffffffffffffffffffffffffff1673ffffffffffffffffffffffffffffffffffffffff168152602001908152602001600020546002610fee565b905080600260003373ffffffffffffffffffffffffffffffffffffffff1673ffffffffffffffffffffffffffffffffffffffff168152602001908152602001600020819055508373ffffffffffffffffffffffffffffffffffffffff163373ffffffffffffffffffffffffffffffffffffffff167f5548c837ab068cf56a2c2479df0882a4922fd203edb7517321831d95078c5f62856040516108bb91906111d2565b60405180910390a3600191505092915050565b600460009054906101000a900473ffffffffffffffffffffffffffffffffffffffff1681565b600060011515600360008573ffffffffffffffffffffffffffffffffffffffff1673ffffffffffffffffffffffffffffffffffffffff16815260200190815260200160002060009054906101000a900460ff1615151461095357600080fd5b818373ffffffffffffffffffffffffffffffffffffffff166370a08231306040518263ffffffff1660e01b815260040161098d919061113c565b602060405180830381600087803b1580156109a757600080fd5b505af11580156109bb573d6000803e3d6000fd5b505050506040513d601f19601f820116820180604052508101906109df91906110e6565b10156109ea57600080fd5b81600260003373ffffffffffffffffffffffffffffffffffffffff1673ffffffffffffffffffffffffffffffffffffffff168152602001908152602001600020541015610a3657600080fd5b8273ffffffffffffffffffffffffffffffffffffffff1663a9059cbb33846040518363ffffffff1660e01b8152600401610a7192919061118e565b602060405180830381600087803b158015610a8b57600080fd5b505af1158015610a9f573d6000803e3d6000fd5b505050506040513d601f19601f82011682018060405250810190610ac391906110bd565b610acc57600080fd5b81600160003373ffffffffffffffffffffffffffffffffffffffff1673ffffffffffffffffffffffffffffffffffffffff16815260200190815260200160002054610b1791906111ed565b600160003373ffffffffffffffffffffffffffffffffffffffff1673ffffffffffffffffffffffffffffffffffffffff1681526020019081526020016000208190555081600260003373ffffffffffffffffffffffffffffffffffffffff1673ffffffffffffffffffffffffffffffffffffffff16815260200190815260200160002054610ba59190611274565b600260003373ffffffffffffffffffffffffffffffffffffffff1673ffffffffffffffffffffffffffffffffffffffff168152602001908152602001600020819055508273ffffffffffffffffffffffffffffffffffffffff163373ffffffffffffffffffffffffffffffffffffffff167f312a5e5e1079f5dda4e95dbbd0b908b291fd5b992ef22073643ab691572c5b5284604051610c4591906111d2565b60405180910390a36001905092915050565b600060011515600360008473ffffffffffffffffffffffffffffffffffffffff1673ffffffffffffffffffffffffffffffffffffffff16815260200190815260200160002060009054906101000a900460ff16151514610cb657600080fd5b6000600160003373ffffffffffffffffffffffffffffffffffffffff1673ffffffffffffffffffffffffffffffffffffffff1681526020019081526020016000205414610d0257600080fd5b60008060003373ffffffffffffffffffffffffffffffffffffffff1673ffffffffffffffffffffffffffffffffffffffff168152602001908152602001600020541015610d4e57600080fd5b6000803373ffffffffffffffffffffffffffffffffffffffff1673ffffffffffffffffffffffffffffffffffffffff168152602001908152602001600020548273ffffffffffffffffffffffffffffffffffffffff166370a08231306040518263ffffffff1660e01b8152600401610dc6919061113c565b602060405180830381600087803b158015610de057600080fd5b505af1158015610df4573d6000803e3d6000fd5b505050506040513d601f19601f82011682018060405250810190610e1891906110e6565b1015610e2357600080fd5b8173ffffffffffffffffffffffffffffffffffffffff1663a9059cbb336000803373ffffffffffffffffffffffffffffffffffffffff1673ffffffffffffffffffffffffffffffffffffffff168152602001908152602001600020546040518363ffffffff1660e01b8152600401610e9c92919061118e565b602060405180830381600087803b158015610eb657600080fd5b505af1158015610eca573d6000803e3d6000fd5b505050506040513d601f19601f82011682018060405250810190610eee91906110bd565b610ef757600080fd5b60008060003373ffffffffffffffffffffffffffffffffffffffff1673ffffffffffffffffffffffffffffffffffffffff168152602001908152602001600020819055508173ffffffffffffffffffffffffffffffffffffffff163373ffffffffffffffffffffffffffffffffffffffff167f34d58c18c6c1df2c698ccac556acea92941ca7b99d2fccf9e3ac1852d0dec36f60405160405180910390a360019050919050565b60036020528060005260406000206000915054906101000a900460ff1681565b60006020528060005260406000206000915090505481565b60016020528060005260406000206000915090505481565b60008183610ffc9190611243565b905092915050565b6000813590506110138161134e565b92915050565b60008151905061102881611365565b92915050565b60008135905061103d8161137c565b92915050565b6000815190506110528161137c565b92915050565b60006020828403121561106a57600080fd5b600061107884828501611004565b91505092915050565b6000806040838503121561109457600080fd5b60006110a285828601611004565b92505060206110b38582860161102e565b9150509250929050565b6000602082840312156110cf57600080fd5b60006110dd84828501611019565b91505092915050565b6000602082840312156110f857600080fd5b600061110684828501611043565b91505092915050565b611118816112a8565b82525050565b611127816112ba565b82525050565b611136816112e6565b82525050565b6000602082019050611151600083018461110f565b92915050565b600060608201905061116c600083018661110f565b611179602083018561110f565b611186604083018461112d565b949350505050565b60006040820190506111a3600083018561110f565b6111b0602083018461112d565b9392505050565b60006020820190506111cc600083018461111e565b92915050565b60006020820190506111e7600083018461112d565b92915050565b60006111f8826112e6565b9150611203836112e6565b9250827fffffffffffffffffffffffffffffffffffffffffffffffffffffffffffffffff03821115611238576112376112f0565b5b828201905092915050565b600061124e826112e6565b9150611259836112e6565b9250826112695761126861131f565b5b828204905092915050565b600061127f826112e6565b915061128a836112e6565b92508282101561129d5761129c6112f0565b5b828203905092915050565b60006112b3826112c6565b9050919050565b60008115159050919050565b600073ffffffffffffffffffffffffffffffffffffffff82169050919050565b6000819050919050565b7f4e487b7100000000000000000000000000000000000000000000000000000000600052601160045260246000fd5b7f4e487b7100000000000000000000000000000000000000000000000000000000600052601260045260246000fd5b611357816112a8565b811461136257600080fd5b50565b61136e816112ba565b811461137957600080fd5b50565b611385816112e6565b811461139057600080fd5b5056fea264697066735822122086cb7cddab51727eb6f235e0f787cbf0fd41aac5a66dc7ac1d9e013685e607de64736f6c63430008000033",
  "immutableReferences": {},
  "source": "// SPDX-License-Identifier: MIT\r\npragma solidity ^0.8.0;\r\n\r\nimport \"@openzeppelin/contracts/utils/math/SafeMath.sol\";\r\n\r\ninterface token {\r\n    function transfer(address to, uint256 amount) external returns (bool);\r\n    function transferFrom(address from,address to, uint256 amount) external returns (bool);\r\n    function balanceOf(address account) external returns (uint256);\r\n}\r\n\r\ncontract masterContract{\r\n    using SafeMath for uint;\r\n\r\n    mapping(address=>uint256) public getUserDeposit;\r\n    mapping(address=>uint256) public getUserCredit;\r\n    mapping(address=>uint256) public getUserCreditLimit;\r\n    mapping(address=>bool) public isTokenSupported;\r\n    address public getInterestVault;\r\n\r\n    event Deposit(\r\n        address indexed _user,\r\n        address indexed _token,\r\n        uint256 _amount\r\n    );\r\n\r\n    event Borrow(\r\n        address indexed _user,\r\n        address indexed _token,\r\n        uint256 _amount\r\n    );\r\n\r\n    event Repay(\r\n        address indexed _user,\r\n        address indexed _token,\r\n        uint256 _amount\r\n    );\r\n\r\n    event Withdraw(\r\n        address indexed _user,\r\n        address indexed _token\r\n    );\r\n\r\n    constructor(address _vault,address token0,address token1,address token2){\r\n        getInterestVault=_vault;\r\n        isTokenSupported[token0]=true;\r\n        isTokenSupported[token1]=true;\r\n        isTokenSupported[token2]=true;\r\n    }\r\n\r\n\r\n    function deposit(address _token, uint256 _amount) public returns (bool success){\r\n        require(isTokenSupported[_token]==true);\r\n        require(token(_token).balanceOf(msg.sender)>=_amount);\r\n        require(token(_token).transferFrom(msg.sender, address(this), _amount));\r\n        getUserDeposit[msg.sender]=getUserDeposit[msg.sender]+_amount;\r\n\r\n        uint score= SafeMath.div(getUserDeposit[msg.sender],2);\r\n        getUserCreditLimit[msg.sender]=score;\r\n\r\n        emit Deposit(msg.sender,_token,_amount);\r\n\r\n        return true;\r\n    }\r\n\r\n    function borrow(address _token, uint256 _amount) public returns (bool success){\r\n        require(isTokenSupported[_token]==true);\r\n        require(token(_token).balanceOf(address(this))>= _amount);\r\n        require(getUserCreditLimit[msg.sender]>=_amount);\r\n        require(token(_token).transfer(msg.sender, _amount));\r\n\r\n        getUserCredit[msg.sender]=getUserCredit[msg.sender]+_amount;\r\n        getUserCreditLimit[msg.sender]=getUserCreditLimit[msg.sender]-_amount;\r\n        \r\n        emit Borrow(msg.sender,_token,_amount);\r\n\r\n        return true;\r\n    }\r\n\r\n    function repay(address _token,uint256 _amount) public returns (bool success){\r\n        require(isTokenSupported[_token]==true);\r\n        require(getUserCredit[msg.sender] >= _amount);\r\n        require(token(_token).balanceOf(msg.sender) >= _amount);\r\n        require(token(_token).transferFrom(msg.sender,address(this),_amount));\r\n\r\n        getUserCredit[msg.sender]=getUserCredit[msg.sender]-_amount;\r\n        getUserCreditLimit[msg.sender]=getUserCreditLimit[msg.sender]+_amount;\r\n\r\n\r\n        emit Repay(msg.sender,_token,_amount);\r\n\r\n        return true;\r\n    }\r\n\r\n    function withdraw(address _token) public returns (bool success){\r\n        require(isTokenSupported[_token]==true);\r\n        require(getUserCredit[msg.sender]==0);\r\n        require(getUserDeposit[msg.sender] >= 0);\r\n        require(token(_token).balanceOf(address(this))>= getUserDeposit[msg.sender]);\r\n        require(token(_token).transfer(msg.sender, getUserDeposit[msg.sender]));\r\n\r\n        getUserDeposit[msg.sender]=0;\r\n\r\n        emit Withdraw(msg.sender,_token);\r\n\r\n        return true; \r\n    }\r\n    \r\n}",
  "sourcePath": "D:\\DEFI project\\contracts\\masterContract.sol",
  "compiler": {
    "name": "solc",
    "version": "0.8.0+commit.c7dfd78e.Emscripten.clang"
  },
  "schemaVersion": "3.4.4",
  "updatedAt": "2022-07-13T18:03:18.598Z",
  "devdoc": {
    "kind": "dev",
    "methods": {},
    "version": 1
  },
  "userdoc": {
    "kind": "user",
    "methods": {},
    "version": 1
  }
}