{
  "contractName": "masterContract",
  "abi": [
    {
      "inputs": [
        {
          "internalType": "address",
          "name": "_vault",
          "type": "address"
        },
        {
          "internalType": "address",
          "name": "token0",
          "type": "address"
        },
        {
          "internalType": "address",
          "name": "token1",
          "type": "address"
        },
        {
          "internalType": "address",
          "name": "token2",
          "type": "address"
        }
      ],
      "stateMutability": "nonpayable",
      "type": "constructor"
    },
    {
      "anonymous": false,
      "inputs": [
        {
          "indexed": true,
          "internalType": "address",
          "name": "_user",
          "type": "address"
        },
        {
          "indexed": true,
          "internalType": "address",
          "name": "_token",
          "type": "address"
        },
        {
          "indexed": false,
          "internalType": "uint256",
          "name": "_amount",
          "type": "uint256"
        }
      ],
      "name": "Borrow",
      "type": "event"
    },
    {
      "anonymous": false,
      "inputs": [
        {
          "indexed": true,
          "internalType": "address",
          "name": "_user",
          "type": "address"
        },
        {
          "indexed": true,
          "internalType": "address",
          "name": "_token",
          "type": "address"
        },
        {
          "indexed": false,
          "internalType": "uint256",
          "name": "_amount",
          "type": "uint256"
        }
      ],
      "name": "Deposit",
      "type": "event"
    },
    {
      "anonymous": false,
      "inputs": [
        {
          "indexed": true,
          "internalType": "address",
          "name": "_user",
          "type": "address"
        },
        {
          "indexed": true,
          "internalType": "address",
          "name": "_token",
          "type": "address"
        },
        {
          "indexed": false,
          "internalType": "uint256",
          "name": "_amount",
          "type": "uint256"
        }
      ],
      "name": "Repay",
      "type": "event"
    },
    {
      "anonymous": false,
      "inputs": [
        {
          "indexed": true,
          "internalType": "address",
          "name": "_user",
          "type": "address"
        },
        {
          "indexed": true,
          "internalType": "address",
          "name": "_token",
          "type": "address"
        }
      ],
      "name": "Withdraw",
      "type": "event"
    },
    {
      "inputs": [],
      "name": "getInterestVault",
      "outputs": [
        {
          "internalType": "address",
          "name": "",
          "type": "address"
        }
      ],
      "stateMutability": "view",
      "type": "function",
      "constant": true
    },
    {
      "inputs": [
        {
          "internalType": "address",
          "name": "",
          "type": "address"
        },
        {
          "internalType": "address",
          "name": "",
          "type": "address"
        }
      ],
      "name": "getUserCredit",
      "outputs": [
        {
          "internalType": "uint256",
          "name": "",
          "type": "uint256"
        }
      ],
      "stateMutability": "view",
      "type": "function",
      "constant": true
    },
    {
      "inputs": [
        {
          "internalType": "address",
          "name": "",
          "type": "address"
        }
      ],
      "name": "getUserCreditLimit",
      "outputs": [
        {
          "internalType": "uint256",
          "name": "",
          "type": "uint256"
        }
      ],
      "stateMutability": "view",
      "type": "function",
      "constant": true
    },
    {
      "inputs": [
        {
          "internalType": "address",
          "name": "",
          "type": "address"
        },
        {
          "internalType": "address",
          "name": "",
          "type": "address"
        }
      ],
      "name": "getUserDeposit",
      "outputs": [
        {
          "internalType": "uint256",
          "name": "",
          "type": "uint256"
        }
      ],
      "stateMutability": "view",
      "type": "function",
      "constant": true
    },
    {
      "inputs": [
        {
          "internalType": "address",
          "name": "",
          "type": "address"
        }
      ],
      "name": "getUserTotalDeposit",
      "outputs": [
        {
          "internalType": "uint256",
          "name": "",
          "type": "uint256"
        }
      ],
      "stateMutability": "view",
      "type": "function",
      "constant": true
    },
    {
      "inputs": [
        {
          "internalType": "address",
          "name": "",
          "type": "address"
        }
      ],
      "name": "isTokenSupported",
      "outputs": [
        {
          "internalType": "bool",
          "name": "",
          "type": "bool"
        }
      ],
      "stateMutability": "view",
      "type": "function",
      "constant": true
    },
    {
      "inputs": [
        {
          "internalType": "address",
          "name": "_token",
          "type": "address"
        },
        {
          "internalType": "uint256",
          "name": "_amount",
          "type": "uint256"
        }
      ],
      "name": "deposit",
      "outputs": [
        {
          "internalType": "bool",
          "name": "success",
          "type": "bool"
        }
      ],
      "stateMutability": "payable",
      "type": "function",
      "payable": true
    },
    {
      "inputs": [
        {
          "internalType": "address",
          "name": "_token",
          "type": "address"
        },
        {
          "internalType": "uint256",
          "name": "_amount",
          "type": "uint256"
        }
      ],
      "name": "borrow",
      "outputs": [
        {
          "internalType": "bool",
          "name": "success",
          "type": "bool"
        }
      ],
      "stateMutability": "payable",
      "type": "function",
      "payable": true
    },
    {
      "inputs": [
        {
          "internalType": "address",
          "name": "_token",
          "type": "address"
        },
        {
          "internalType": "uint256",
          "name": "_amount",
          "type": "uint256"
        }
      ],
      "name": "repay",
      "outputs": [
        {
          "internalType": "bool",
          "name": "success",
          "type": "bool"
        }
      ],
      "stateMutability": "payable",
      "type": "function",
      "payable": true
    },
    {
      "inputs": [
        {
          "internalType": "address",
          "name": "_token",
          "type": "address"
        }
      ],
      "name": "withdraw",
      "outputs": [
        {
          "internalType": "bool",
          "name": "success",
          "type": "bool"
        }
      ],
      "stateMutability": "payable",
      "type": "function",
      "payable": true
    }
  ],
  "bytecode": "0x60806040523480156200001157600080fd5b5060405162001b1338038062001b138339818101604052810190620000379190620001a1565b83600560006101000a81548173ffffffffffffffffffffffffffffffffffffffff021916908373ffffffffffffffffffffffffffffffffffffffff1602179055506001600460008573ffffffffffffffffffffffffffffffffffffffff1673ffffffffffffffffffffffffffffffffffffffff16815260200190815260200160002060006101000a81548160ff0219169083151502179055506001600460008473ffffffffffffffffffffffffffffffffffffffff1673ffffffffffffffffffffffffffffffffffffffff16815260200190815260200160002060006101000a81548160ff0219169083151502179055506001600460008373ffffffffffffffffffffffffffffffffffffffff1673ffffffffffffffffffffffffffffffffffffffff16815260200190815260200160002060006101000a81548160ff021916908315150217905550505050506200025b565b6000815190506200019b8162000241565b92915050565b60008060008060808587031215620001b857600080fd5b6000620001c8878288016200018a565b9450506020620001db878288016200018a565b9350506040620001ee878288016200018a565b925050606062000201878288016200018a565b91505092959194509250565b60006200021a8262000221565b9050919050565b600073ffffffffffffffffffffffffffffffffffffffff82169050919050565b6200024c816200020d565b81146200025857600080fd5b50565b6118a8806200026b6000396000f3fe6080604052600436106100915760003560e01c80634b8a3529116100595780634b8a35291461019b57806351cff8d9146101cb57806375151b63146101fb578063a4c828dc14610238578063e7ab2ce51461027557610091565b8063148c658c146100965780631a8ec2f9146100d357806322867d781461011057806347e7ef241461014057806348a6618014610170575b600080fd5b3480156100a257600080fd5b506100bd60048036038101906100b89190611524565b6102b2565b6040516100ca91906116b1565b60405180910390f35b3480156100df57600080fd5b506100fa60048036038101906100f591906114fb565b6102d7565b60405161010791906116b1565b60405180910390f35b61012a60048036038101906101259190611560565b6102ef565b6040516101379190611696565b60405180910390f35b61015a60048036038101906101559190611560565b61070b565b6040516101679190611696565b60405180910390f35b34801561017c57600080fd5b50610185610b2f565b604051610192919061161b565b60405180910390f35b6101b560048036038101906101b09190611560565b610b55565b6040516101c29190611696565b60405180910390f35b6101e560048036038101906101e091906114fb565b610f32565b6040516101f29190611696565b60405180910390f35b34801561020757600080fd5b50610222600480360381019061021d91906114fb565b611434565b60405161022f9190611696565b60405180910390f35b34801561024457600080fd5b5061025f600480360381019061025a91906114fb565b611454565b60405161026c91906116b1565b60405180910390f35b34801561028157600080fd5b5061029c60048036038101906102979190611524565b61146c565b6040516102a991906116b1565b60405180910390f35b6000602052816000526040600020602052806000526040600020600091509150505481565b60036020528060005260406000206000915090505481565b600060011515600460008573ffffffffffffffffffffffffffffffffffffffff1673ffffffffffffffffffffffffffffffffffffffff16815260200190815260200160002060009054906101000a900460ff1615151461034e57600080fd5b81600260003373ffffffffffffffffffffffffffffffffffffffff1673ffffffffffffffffffffffffffffffffffffffff16815260200190815260200160002060008573ffffffffffffffffffffffffffffffffffffffff1673ffffffffffffffffffffffffffffffffffffffff1681526020019081526020016000205410156103d757600080fd5b818373ffffffffffffffffffffffffffffffffffffffff166370a08231336040518263ffffffff1660e01b8152600401610411919061161b565b602060405180830381600087803b15801561042b57600080fd5b505af115801561043f573d6000803e3d6000fd5b505050506040513d601f19601f8201168201806040525081019061046391906115c5565b101561046e57600080fd5b8273ffffffffffffffffffffffffffffffffffffffff166323b872dd3330856040518463ffffffff1660e01b81526004016104ab93929190611636565b602060405180830381600087803b1580156104c557600080fd5b505af11580156104d9573d6000803e3d6000fd5b505050506040513d601f19601f820116820180604052508101906104fd919061159c565b61050657600080fd5b81600260003373ffffffffffffffffffffffffffffffffffffffff1673ffffffffffffffffffffffffffffffffffffffff16815260200190815260200160002060008573ffffffffffffffffffffffffffffffffffffffff1673ffffffffffffffffffffffffffffffffffffffff1681526020019081526020016000205461058e9190611753565b600260003373ffffffffffffffffffffffffffffffffffffffff1673ffffffffffffffffffffffffffffffffffffffff16815260200190815260200160002060008573ffffffffffffffffffffffffffffffffffffffff1673ffffffffffffffffffffffffffffffffffffffff1681526020019081526020016000208190555081600360003373ffffffffffffffffffffffffffffffffffffffff1673ffffffffffffffffffffffffffffffffffffffff1681526020019081526020016000205461065991906116cc565b600360003373ffffffffffffffffffffffffffffffffffffffff1673ffffffffffffffffffffffffffffffffffffffff168152602001908152602001600020819055508273ffffffffffffffffffffffffffffffffffffffff163373ffffffffffffffffffffffffffffffffffffffff167f05f2eeda0e08e4b437f487c8d7d29b14537d15e3488170dc3de5dbdf8dac4684846040516106f991906116b1565b60405180910390a36001905092915050565b600060011515600460008573ffffffffffffffffffffffffffffffffffffffff1673ffffffffffffffffffffffffffffffffffffffff16815260200190815260200160002060009054906101000a900460ff1615151461076a57600080fd5b818373ffffffffffffffffffffffffffffffffffffffff166370a08231336040518263ffffffff1660e01b81526004016107a4919061161b565b602060405180830381600087803b1580156107be57600080fd5b505af11580156107d2573d6000803e3d6000fd5b505050506040513d601f19601f820116820180604052508101906107f691906115c5565b101561080157600080fd5b8273ffffffffffffffffffffffffffffffffffffffff166323b872dd3330856040518463ffffffff1660e01b815260040161083e93929190611636565b602060405180830381600087803b15801561085857600080fd5b505af115801561086c573d6000803e3d6000fd5b505050506040513d601f19601f82011682018060405250810190610890919061159c565b61089957600080fd5b816000803373ffffffffffffffffffffffffffffffffffffffff1673ffffffffffffffffffffffffffffffffffffffff16815260200190815260200160002060008573ffffffffffffffffffffffffffffffffffffffff1673ffffffffffffffffffffffffffffffffffffffff1681526020019081526020016000205461092091906116cc565b6000803373ffffffffffffffffffffffffffffffffffffffff1673ffffffffffffffffffffffffffffffffffffffff16815260200190815260200160002060008573ffffffffffffffffffffffffffffffffffffffff1673ffffffffffffffffffffffffffffffffffffffff1681526020019081526020016000208190555081600160003373ffffffffffffffffffffffffffffffffffffffff1673ffffffffffffffffffffffffffffffffffffffff168152602001908152602001600020546109ea91906116cc565b600160003373ffffffffffffffffffffffffffffffffffffffff1673ffffffffffffffffffffffffffffffffffffffff168152602001908152602001600020819055506000610a79600160003373ffffffffffffffffffffffffffffffffffffffff1673ffffffffffffffffffffffffffffffffffffffff168152602001908152602001600020546002611491565b905080600360003373ffffffffffffffffffffffffffffffffffffffff1673ffffffffffffffffffffffffffffffffffffffff168152602001908152602001600020819055508373ffffffffffffffffffffffffffffffffffffffff163373ffffffffffffffffffffffffffffffffffffffff167f5548c837ab068cf56a2c2479df0882a4922fd203edb7517321831d95078c5f6285604051610b1c91906116b1565b60405180910390a3600191505092915050565b600560009054906101000a900473ffffffffffffffffffffffffffffffffffffffff1681565b600060011515600460008573ffffffffffffffffffffffffffffffffffffffff1673ffffffffffffffffffffffffffffffffffffffff16815260200190815260200160002060009054906101000a900460ff16151514610bb457600080fd5b818373ffffffffffffffffffffffffffffffffffffffff166370a08231306040518263ffffffff1660e01b8152600401610bee919061161b565b602060405180830381600087803b158015610c0857600080fd5b505af1158015610c1c573d6000803e3d6000fd5b505050506040513d601f19601f82011682018060405250810190610c4091906115c5565b1015610c4b57600080fd5b81600360003373ffffffffffffffffffffffffffffffffffffffff1673ffffffffffffffffffffffffffffffffffffffff168152602001908152602001600020541015610c9757600080fd5b8273ffffffffffffffffffffffffffffffffffffffff1663a9059cbb33846040518363ffffffff1660e01b8152600401610cd292919061166d565b602060405180830381600087803b158015610cec57600080fd5b505af1158015610d00573d6000803e3d6000fd5b505050506040513d601f19601f82011682018060405250810190610d24919061159c565b610d2d57600080fd5b81600260003373ffffffffffffffffffffffffffffffffffffffff1673ffffffffffffffffffffffffffffffffffffffff16815260200190815260200160002060008573ffffffffffffffffffffffffffffffffffffffff1673ffffffffffffffffffffffffffffffffffffffff16815260200190815260200160002054610db591906116cc565b600260003373ffffffffffffffffffffffffffffffffffffffff1673ffffffffffffffffffffffffffffffffffffffff16815260200190815260200160002060008573ffffffffffffffffffffffffffffffffffffffff1673ffffffffffffffffffffffffffffffffffffffff1681526020019081526020016000208190555081600360003373ffffffffffffffffffffffffffffffffffffffff1673ffffffffffffffffffffffffffffffffffffffff16815260200190815260200160002054610e809190611753565b600360003373ffffffffffffffffffffffffffffffffffffffff1673ffffffffffffffffffffffffffffffffffffffff168152602001908152602001600020819055508273ffffffffffffffffffffffffffffffffffffffff163373ffffffffffffffffffffffffffffffffffffffff167f312a5e5e1079f5dda4e95dbbd0b908b291fd5b992ef22073643ab691572c5b5284604051610f2091906116b1565b60405180910390a36001905092915050565b600060011515600460008473ffffffffffffffffffffffffffffffffffffffff1673ffffffffffffffffffffffffffffffffffffffff16815260200190815260200160002060009054906101000a900460ff16151514610f9157600080fd5b6000600260003373ffffffffffffffffffffffffffffffffffffffff1673ffffffffffffffffffffffffffffffffffffffff16815260200190815260200160002060008473ffffffffffffffffffffffffffffffffffffffff1673ffffffffffffffffffffffffffffffffffffffff168152602001908152602001600020541461101a57600080fd5b60008060003373ffffffffffffffffffffffffffffffffffffffff1673ffffffffffffffffffffffffffffffffffffffff16815260200190815260200160002060008473ffffffffffffffffffffffffffffffffffffffff1673ffffffffffffffffffffffffffffffffffffffff1681526020019081526020016000205410156110a357600080fd5b8173ffffffffffffffffffffffffffffffffffffffff1663a9059cbb336000803373ffffffffffffffffffffffffffffffffffffffff1673ffffffffffffffffffffffffffffffffffffffff16815260200190815260200160002060008673ffffffffffffffffffffffffffffffffffffffff1673ffffffffffffffffffffffffffffffffffffffff168152602001908152602001600020546040518363ffffffff1660e01b815260040161115992919061166d565b602060405180830381600087803b15801561117357600080fd5b505af1158015611187573d6000803e3d6000fd5b505050506040513d601f19601f820116820180604052508101906111ab919061159c565b6111b457600080fd5b6000803373ffffffffffffffffffffffffffffffffffffffff1673ffffffffffffffffffffffffffffffffffffffff16815260200190815260200160002060008373ffffffffffffffffffffffffffffffffffffffff1673ffffffffffffffffffffffffffffffffffffffff16815260200190815260200160002054600160003373ffffffffffffffffffffffffffffffffffffffff1673ffffffffffffffffffffffffffffffffffffffff1681526020019081526020016000205461127a9190611753565b600160003373ffffffffffffffffffffffffffffffffffffffff1673ffffffffffffffffffffffffffffffffffffffff168152602001908152602001600020819055506000611309600160003373ffffffffffffffffffffffffffffffffffffffff1673ffffffffffffffffffffffffffffffffffffffff168152602001908152602001600020546002611491565b905080600360003373ffffffffffffffffffffffffffffffffffffffff1673ffffffffffffffffffffffffffffffffffffffff1681526020019081526020016000208190555060008060003373ffffffffffffffffffffffffffffffffffffffff1673ffffffffffffffffffffffffffffffffffffffff16815260200190815260200160002060008573ffffffffffffffffffffffffffffffffffffffff1673ffffffffffffffffffffffffffffffffffffffff168152602001908152602001600020819055508273ffffffffffffffffffffffffffffffffffffffff163373ffffffffffffffffffffffffffffffffffffffff167f34d58c18c6c1df2c698ccac556acea92941ca7b99d2fccf9e3ac1852d0dec36f60405160405180910390a36001915050919050565b60046020528060005260406000206000915054906101000a900460ff1681565b60016020528060005260406000206000915090505481565b6002602052816000526040600020602052806000526040600020600091509150505481565b6000818361149f9190611722565b905092915050565b6000813590506114b68161182d565b92915050565b6000815190506114cb81611844565b92915050565b6000813590506114e08161185b565b92915050565b6000815190506114f58161185b565b92915050565b60006020828403121561150d57600080fd5b600061151b848285016114a7565b91505092915050565b6000806040838503121561153757600080fd5b6000611545858286016114a7565b9250506020611556858286016114a7565b9150509250929050565b6000806040838503121561157357600080fd5b6000611581858286016114a7565b9250506020611592858286016114d1565b9150509250929050565b6000602082840312156115ae57600080fd5b60006115bc848285016114bc565b91505092915050565b6000602082840312156115d757600080fd5b60006115e5848285016114e6565b91505092915050565b6115f781611787565b82525050565b61160681611799565b82525050565b611615816117c5565b82525050565b600060208201905061163060008301846115ee565b92915050565b600060608201905061164b60008301866115ee565b61165860208301856115ee565b611665604083018461160c565b949350505050565b600060408201905061168260008301856115ee565b61168f602083018461160c565b9392505050565b60006020820190506116ab60008301846115fd565b92915050565b60006020820190506116c6600083018461160c565b92915050565b60006116d7826117c5565b91506116e2836117c5565b9250827fffffffffffffffffffffffffffffffffffffffffffffffffffffffffffffffff03821115611717576117166117cf565b5b828201905092915050565b600061172d826117c5565b9150611738836117c5565b925082611748576117476117fe565b5b828204905092915050565b600061175e826117c5565b9150611769836117c5565b92508282101561177c5761177b6117cf565b5b828203905092915050565b6000611792826117a5565b9050919050565b60008115159050919050565b600073ffffffffffffffffffffffffffffffffffffffff82169050919050565b6000819050919050565b7f4e487b7100000000000000000000000000000000000000000000000000000000600052601160045260246000fd5b7f4e487b7100000000000000000000000000000000000000000000000000000000600052601260045260246000fd5b61183681611787565b811461184157600080fd5b50565b61184d81611799565b811461185857600080fd5b50565b611864816117c5565b811461186f57600080fd5b5056fea2646970667358221220477eb181cb0bcb1e421577999d0e2f0d4598948f0deb31c1a97182b9d11bc0f464736f6c63430008000033",
  "immutableReferences": {},
  "source": "// SPDX-License-Identifier: MIT\r\npragma solidity ^0.8.0;\r\n\r\nimport \"@openzeppelin/contracts/utils/math/SafeMath.sol\";\r\n\r\ninterface token {\r\n    function transfer(address to, uint256 amount) external returns (bool);\r\n    function transferFrom(address from,address to, uint256 amount) external returns (bool);\r\n    function balanceOf(address account) external returns (uint256);\r\n    function approve(address spender, uint256 amount) external returns (bool);\r\n}\r\n\r\ncontract masterContract{\r\n    using SafeMath for uint;\r\n\r\n    mapping(address=>mapping(address=>uint256)) public getUserDeposit;\r\n    mapping(address=>uint256) public getUserTotalDeposit;\r\n    mapping(address=>mapping(address=>uint256)) public getUserCredit;\r\n    mapping(address=>uint256) public getUserCreditLimit;\r\n    mapping(address=>bool) public isTokenSupported;\r\n    address public getInterestVault;\r\n\r\n    event Deposit(\r\n        address indexed _user,\r\n        address indexed _token,\r\n        uint256 _amount\r\n    );\r\n\r\n    event Borrow(\r\n        address indexed _user,\r\n        address indexed _token,\r\n        uint256 _amount\r\n    );\r\n\r\n    event Repay(\r\n        address indexed _user,\r\n        address indexed _token,\r\n        uint256 _amount\r\n    );\r\n\r\n    event Withdraw(\r\n        address indexed _user,\r\n        address indexed _token\r\n    );\r\n\r\n    constructor(address _vault,address token0,address token1,address token2){\r\n        getInterestVault=_vault;\r\n        isTokenSupported[token0]=true;\r\n        isTokenSupported[token1]=true;\r\n        isTokenSupported[token2]=true;\r\n    }\r\n\r\n\r\n    function deposit(address _token, uint256 _amount) public payable returns (bool success){\r\n        require(isTokenSupported[_token]==true);\r\n        require(token(_token).balanceOf(msg.sender)>=_amount);\r\n        require(token(_token).transferFrom(msg.sender, address(this), _amount));\r\n\r\n        getUserDeposit[msg.sender][_token]=getUserDeposit[msg.sender][_token]+_amount;\r\n        getUserTotalDeposit[msg.sender]=getUserTotalDeposit[msg.sender]+_amount;\r\n\r\n        uint limit= SafeMath.div(getUserTotalDeposit[msg.sender],2);\r\n        getUserCreditLimit[msg.sender]=limit;\r\n\r\n        emit Deposit(msg.sender,_token,_amount);\r\n\r\n        return true;\r\n    }\r\n\r\n    function borrow(address _token, uint256 _amount) public payable returns (bool success){\r\n        require(isTokenSupported[_token]==true);\r\n        require(token(_token).balanceOf(address(this))>= _amount);\r\n        require(getUserCreditLimit[msg.sender]>=_amount);\r\n        require(token(_token).transfer(msg.sender, _amount));\r\n\r\n        getUserCredit[msg.sender][_token]=getUserCredit[msg.sender][_token]+_amount;\r\n        getUserCreditLimit[msg.sender]=getUserCreditLimit[msg.sender]-_amount;\r\n        \r\n        emit Borrow(msg.sender,_token,_amount);\r\n\r\n        return true;\r\n    }\r\n\r\n    function repay(address _token,uint256 _amount) public payable returns (bool success){\r\n        require(isTokenSupported[_token]==true);\r\n        require(getUserCredit[msg.sender][_token] >= _amount);\r\n        require(token(_token).balanceOf(msg.sender) >= _amount);\r\n        require(token(_token).transferFrom(msg.sender,address(this),_amount));\r\n\r\n        getUserCredit[msg.sender][_token]=getUserCredit[msg.sender][_token]-_amount;\r\n        getUserCreditLimit[msg.sender]=getUserCreditLimit[msg.sender]+_amount;\r\n\r\n        emit Repay(msg.sender,_token,_amount);\r\n\r\n        return true;\r\n    }\r\n\r\n    function withdraw(address _token) public payable returns (bool success){\r\n        require(isTokenSupported[_token]==true);\r\n        require(getUserCredit[msg.sender][_token]==0);\r\n        require(getUserDeposit[msg.sender][_token] >= 0);\r\n        require(token(_token).transfer(msg.sender, getUserDeposit[msg.sender][_token]));\r\n\r\n        getUserTotalDeposit[msg.sender]=getUserTotalDeposit[msg.sender]-getUserDeposit[msg.sender][_token];\r\n        uint limit= SafeMath.div(getUserTotalDeposit[msg.sender],2);\r\n        getUserCreditLimit[msg.sender]=limit;\r\n        getUserDeposit[msg.sender][_token]=0;\r\n        \r\n        emit Withdraw(msg.sender,_token);\r\n\r\n        return true; \r\n    }\r\n    \r\n}",
  "sourcePath": "D:\\DEFI project\\contracts\\masterContract.sol",
  "compiler": {
    "name": "solc",
    "version": "0.8.0+commit.c7dfd78e.Emscripten.clang"
  },
  "schemaVersion": "3.4.4",
  "updatedAt": "2022-07-14T17:59:19.017Z",
  "networkType": "ethereum",
  "devdoc": {
    "kind": "dev",
    "methods": {},
    "version": 1
  },
  "userdoc": {
    "kind": "user",
    "methods": {},
    "version": 1
  }
}